{
  "_format": "hh-sol-artifact-1",
  "contractName": "OptimaContract",
  "sourceName": "contracts/FieldContract.sol",
  "abi": [
    {
      "inputs": [
        {
          "internalType": "string",
          "name": "_optimaIdentifier",
          "type": "string"
        }
      ],
      "name": "getFieldsByOptimaIdentifier",
      "outputs": [
        {
          "components": [
            {
              "internalType": "string",
              "name": "fieldName",
              "type": "string"
            },
            {
              "internalType": "string",
              "name": "fieldValue",
              "type": "string"
            },
            {
              "internalType": "string",
              "name": "fieldType",
              "type": "string"
            },
            {
              "internalType": "string",
              "name": "optimaIdentifier",
              "type": "string"
            }
          ],
          "internalType": "struct OptimaContract.Field[]",
          "name": "",
          "type": "tuple[]"
        }
      ],
      "stateMutability": "view",
      "type": "function"
    },
    {
      "inputs": [
        {
          "internalType": "string",
          "name": "_fieldName",
          "type": "string"
        },
        {
          "internalType": "string",
          "name": "_fieldValue",
          "type": "string"
        },
        {
          "internalType": "string",
          "name": "_fieldType",
          "type": "string"
        },
        {
          "internalType": "string",
          "name": "_optimaIdentifier",
          "type": "string"
        }
      ],
      "name": "saveField",
      "outputs": [],
      "stateMutability": "nonpayable",
      "type": "function"
    }
  ],
  "bytecode": "0x608060405234801561001057600080fd5b50610be0806100206000396000f3fe608060405234801561001057600080fd5b50600436106100365760003560e01c80634dfa790a1461003b578063f83fa1561461006b575b600080fd5b61005560048036038101906100509190610574565b610087565b6040516100629190610776565b60405180910390f35b61008560048036038101906100809190610798565b61034c565b005b606060008260405161009991906108ab565b9081526020016040518091039020805480602002602001604051908101604052809291908181526020016000905b8282101561034157838290600052602060002090600402016040518060800160405290816000820180546100fa906108f1565b80601f0160208091040260200160405190810160405280929190818152602001828054610126906108f1565b80156101735780601f1061014857610100808354040283529160200191610173565b820191906000526020600020905b81548152906001019060200180831161015657829003601f168201915b5050505050815260200160018201805461018c906108f1565b80601f01602080910402602001604051908101604052809291908181526020018280546101b8906108f1565b80156102055780601f106101da57610100808354040283529160200191610205565b820191906000526020600020905b8154815290600101906020018083116101e857829003601f168201915b5050505050815260200160028201805461021e906108f1565b80601f016020809104026020016040519081016040528092919081815260200182805461024a906108f1565b80156102975780601f1061026c57610100808354040283529160200191610297565b820191906000526020600020905b81548152906001019060200180831161027a57829003601f168201915b505050505081526020016003820180546102b0906108f1565b80601f01602080910402602001604051908101604052809291908181526020018280546102dc906108f1565b80156103295780601f106102fe57610100808354040283529160200191610329565b820191906000526020600020905b81548152906001019060200180831161030c57829003601f168201915b505050505081525050815260200190600101906100c7565b505050509050919050565b6000604051806080016040528086815260200185815260200184815260200183815250905060008260405161038191906108ab565b908152602001604051809103902081908060018154018082558091505060019003906000526020600020906004020160009091909190915060008201518160000190816103ce9190610ad8565b5060208201518160010190816103e49190610ad8565b5060408201518160020190816103fa9190610ad8565b5060608201518160030190816104109190610ad8565b5050505050505050565b6000604051905090565b600080fd5b600080fd5b600080fd5b600080fd5b6000601f19601f8301169050919050565b7f4e487b7100000000000000000000000000000000000000000000000000000000600052604160045260246000fd5b61048182610438565b810181811067ffffffffffffffff821117156104a05761049f610449565b5b80604052505050565b60006104b361041a565b90506104bf8282610478565b919050565b600067ffffffffffffffff8211156104df576104de610449565b5b6104e882610438565b9050602081019050919050565b82818337600083830152505050565b6000610517610512846104c4565b6104a9565b90508281526020810184848401111561053357610532610433565b5b61053e8482856104f5565b509392505050565b600082601f83011261055b5761055a61042e565b5b813561056b848260208601610504565b91505092915050565b60006020828403121561058a57610589610424565b5b600082013567ffffffffffffffff8111156105a8576105a7610429565b5b6105b484828501610546565b91505092915050565b600081519050919050565b600082825260208201905092915050565b6000819050602082019050919050565b600081519050919050565b600082825260208201905092915050565b60005b83811015610623578082015181840152602081019050610608565b60008484015250505050565b600061063a826105e9565b61064481856105f4565b9350610654818560208601610605565b61065d81610438565b840191505092915050565b60006080830160008301518482036000860152610685828261062f565b9150506020830151848203602086015261069f828261062f565b915050604083015184820360408601526106b9828261062f565b915050606083015184820360608601526106d3828261062f565b9150508091505092915050565b60006106ec8383610668565b905092915050565b6000602082019050919050565b600061070c826105bd565b61071681856105c8565b935083602082028501610728856105d9565b8060005b85811015610764578484038952815161074585826106e0565b9450610750836106f4565b925060208a0199505060018101905061072c565b50829750879550505050505092915050565b600060208201905081810360008301526107908184610701565b905092915050565b600080600080608085870312156107b2576107b1610424565b5b600085013567ffffffffffffffff8111156107d0576107cf610429565b5b6107dc87828801610546565b945050602085013567ffffffffffffffff8111156107fd576107fc610429565b5b61080987828801610546565b935050604085013567ffffffffffffffff81111561082a57610829610429565b5b61083687828801610546565b925050606085013567ffffffffffffffff81111561085757610856610429565b5b61086387828801610546565b91505092959194509250565b600081905092915050565b6000610885826105e9565b61088f818561086f565b935061089f818560208601610605565b80840191505092915050565b60006108b7828461087a565b915081905092915050565b7f4e487b7100000000000000000000000000000000000000000000000000000000600052602260045260246000fd5b6000600282049050600182168061090957607f821691505b60208210810361091c5761091b6108c2565b5b50919050565b60008190508160005260206000209050919050565b60006020601f8301049050919050565b600082821b905092915050565b6000600883026109847fffffffffffffffffffffffffffffffffffffffffffffffffffffffffffffffff82610947565b61098e8683610947565b95508019841693508086168417925050509392505050565b6000819050919050565b6000819050919050565b60006109d56109d06109cb846109a6565b6109b0565b6109a6565b9050919050565b6000819050919050565b6109ef836109ba565b610a036109fb826109dc565b848454610954565b825550505050565b600090565b610a18610a0b565b610a238184846109e6565b505050565b5b81811015610a4757610a3c600082610a10565b600181019050610a29565b5050565b601f821115610a8c57610a5d81610922565b610a6684610937565b81016020851015610a75578190505b610a89610a8185610937565b830182610a28565b50505b505050565b600082821c905092915050565b6000610aaf60001984600802610a91565b1980831691505092915050565b6000610ac88383610a9e565b9150826002028217905092915050565b610ae1826105e9565b67ffffffffffffffff811115610afa57610af9610449565b5b610b0482546108f1565b610b0f828285610a4b565b600060209050601f831160018114610b425760008415610b30578287015190505b610b3a8582610abc565b865550610ba2565b601f198416610b5086610922565b60005b82811015610b7857848901518255600182019150602085019450602081019050610b53565b86831015610b955784890151610b91601f891682610a9e565b8355505b6001600288020188555050505b50505050505056fea2646970667358221220dc7cc89605444e45e7601b632ace47d659dc7ebd7401e7d1bdd9743658013a7664736f6c63430008110033",
  "linkReferences": {},
  "deployedLinkReferences": {}
}